:020000040000FA
:10000000680400206D02000071020000730200000D
:100010007502000077020000790200000000000075
:100020000000000000000000000000007B02000053
:100030007D020000000000007F020000810200003D
:10004000830200008302000083020000830200009C
:10005000830200008302000083020000830200008C
:10006000830200008302000083020000830200007C
:10007000830200008302000083020000830200006C
:100080008302000083020000830200001D040000C0
:10009000830200008302000083020000830200004C
:1000A000830200008302000083020000830200003C
:1000B000830200008302000083020000830200002C
:1000C000830200008302000083020000830200001C
:1000D000830200008302000083020000830200000C
:1000E00083020000830200008302000083020000FC
:1000F00083020000830200008302000083020000EC
:1001000083020000830200008302000083020000DB
:1001100083020000830200008302000083020000CB
:1001200083020000830200008302000083020000BB
:1001300083020000830200008302000083020000AB
:1001400000000000000000000000000000000000AF
:10015000830200008302000083020000830200008B
:10016000000000000000000000000000000000008F
:10017000000000000000000000000000000000007F
:10018000000000000000000000000000000000006F
:10019000000000000000000000000000000000005F
:1001A000000000000000000000000000000000004F
:1001B000830200008302000083020000830200002B
:1001C000830200008302000083020000830200001B
:1001D000830200008302000083020000830200000B
:1001E00083020000830200008302000083020000FB
:1001F00083020000830200008302000083020000EB
:10020000830200008302000083020000000000005F
:1002100083020000830200008302000083020000CA
:1002200083020000830200008302000083020000BA
:1002300083020000830200008302000083020000AA
:10024000830200008302000083020000830200009A
:10025000830200008302000083020000830200008A
:1002600083020000830200008302000000F00AB84D
:10027000FEE7FEE7FEE7FEE7FEE7FEE7FEE7FEE756
:10028000FEE7FEE700F002F800F02CF80AA090E884
:10029000000C82448344AAF10107DA4501D100F041
:1002A00021F8AFF2090EBAE80F0013F0010F18BFE2
:1002B000FB1A43F001031847B0020000C00200001F
:1002C0000023002400250026103A28BF78C1FBD85F
:1002D000520728BF30C148BF0B6070471FB51FBD14
:1002E00010B510BD00F029F81146FFF7F7FF00F038
:1002F000EDF800F047F803B4FFF7F2FF03BC00F09D
:100300004FF8000072B6704762B67047EFF3108086
:1003100072B6704780F31088704730BF704702484C
:100320000249014A024B704768000020680400201F
:1003300068000020704770477047754600F02CF841
:10034000AE4605006946534620F00700854618B0C2
:1003500020B5FFF7E4FFBDE820404FF000064FF066
:1003600000074FF000084FF0000BAC46ACE8C009A6
:10037000ACE8C009ACE8C009ACE8C00921F007014D
:100380008D46704710B50446AFF300802046BDE8A7
:100390001040FFF7B0BF0000004870470000002089
:1003A00001491820ABBEFEE726000200704700009E
:1003B0004EF27000C4F20F000168042241F00041C7
:1003C0000160016841F40061016050F8101C21F4E3
:1003D000F86140F8101C50F8101C01F5A86140F8B5
:1003E000101C016821F07001016001680160016862
:1003F00021F400510160016841F080410160016811
:1004000062F39C51016000BF50F8201C4906FBD5E7
:10041000016821F4006101607047000080B524206C
:10042000C4F203000121016040F26000C2F200004A
:100430000068804780BD00004EF20462C4F20F02E3
:100440001368013943F00103136040F26002C2F205
:10045000000210600C20C4F203000022022302609C
:1004600040F80C2C40F8083CC161C2624FF0010C0E
:100470004EF21042C0F818C0C0F80CC0CEF2000214
:100480001368802161F31F634FF6F0411360CFF6CC
:10049000FF714FF400235350C0F800C070470000B4
:1004A00040F26400C2F20000016840F2485301F0DB
:1004B0000702C0F2000353F8222045F23803C4F2C9
:1004C000020301311A6001607047000082B0FFF73B
:1004D0006FFF4EF20810C4F20F0001684FF6F07380
:1004E00041F0200101600068019045F20040C4F233
:1004F0000200016841F00E010160016A21F00E0165
:10050000016245F21C51C4F202010A6842F00E0277
:100510000A600A699A430A610022CA604FF63841AC
:10052000CFF6FF71425040F2A1404BF20041C0F2C1
:100530000000C0F2C441FFF77FFFFFF7E5FE00BFF8
:10054000FFF7EBFEFCE70000020000000A000000DD
:10055000080000000C00000004000000060000007D
:100560000E000000000000007805000000000020E0
:0805700068040000C002000055
:040000050000026D88
:00000001FF
