:020000040000FA
:10000000680400206D02000071020000730200000D
:100010007502000077020000790200000000000075
:100020000000000000000000000000007B02000053
:100030007D020000000000007F020000810200003D
:10004000830200008302000083020000830200009C
:10005000830200008302000083020000830200008C
:10006000830200008302000083020000830200007C
:10007000830200008302000083020000830200006C
:10008000830200008302000083020000830200005C
:100090008302000049040000830200008302000084
:1000A000830200008302000083020000830200003C
:1000B000830200008302000083020000830200002C
:1000C000830200008302000083020000830200001C
:1000D000830200008302000083020000830200000C
:1000E00083020000830200008302000083020000FC
:1000F00083020000830200008302000083020000EC
:1001000083020000830200008302000083020000DB
:1001100083020000830200008302000083020000CB
:1001200083020000830200008302000083020000BB
:1001300083020000830200008302000083020000AB
:1001400000000000000000000000000000000000AF
:10015000830200008302000083020000830200008B
:10016000000000000000000000000000000000008F
:10017000000000000000000000000000000000007F
:10018000000000000000000000000000000000006F
:10019000000000000000000000000000000000005F
:1001A000000000000000000000000000000000004F
:1001B000830200008302000083020000830200002B
:1001C000830200008302000083020000830200001B
:1001D000830200008302000083020000830200000B
:1001E00083020000830200008302000083020000FB
:1001F00083020000830200008302000083020000EB
:10020000830200008302000083020000000000005F
:1002100083020000830200008302000083020000CA
:1002200083020000830200008302000083020000BA
:1002300083020000830200008302000083020000AA
:10024000830200008302000083020000830200009A
:10025000830200008302000083020000830200008A
:1002600083020000830200008302000000F00AB84D
:10027000FEE7FEE7FEE7FEE7FEE7FEE7FEE7FEE756
:10028000FEE7FEE700F002F800F042F814A696E858
:10029000000CB244B344DA4501D100F039F8BAE8B1
:1002A0000F000FA696E83000A5EB040504EB060747
:1002B000AAEB0704A7F101074FEA15154FEA34141A
:1002C000A4F10104AC4201D300F022F813F0010FB5
:1002D00018BFFB1A43F0010300F001F8DBE71847F1
:1002E0004C0200005C020000704700000023002464
:1002F00000250026103A28BF78C1FBD8520728BF36
:1003000030C148BF0B6070471FB51FBD10B510BD91
:1003100000F029F81146FFF7F7FF00F0CBF800F0E6
:1003200047F803B4FFF7F2FF03BC00F04FF80000FA
:1003300072B6704762B67047EFF3108072B67047BE
:1003400080F31088704730BF704702480249014A65
:10035000024B7047680000206804002068000020FD
:10036000704770477047754600F02CF8AE460500A0
:100370006946534620F00700854618B020B5FFF7C0
:10038000E4FFBDE820404FF000064FF000074FF0BB
:1003900000084FF0000BAC46ACE8C009ACE8C0095F
:1003A000ACE8C009ACE8C00921F007018D467047F0
:1003B00010B50446AFF300802046BDE81040FFF7BB
:1003C000B0BF00000048704700000020014918201D
:1003D000ABBEFEE726000200704700004EF2700040
:1003E000C4F20F000168182241F000410160016869
:1003F00041F40061016050F8101C21F4F86140F8EC
:10040000101C50F8101C01F5A86140F8101C016880
:1004100021F07001016001680160016821F4005160
:100420000160016841F080410160016862F39C5104
:10043000016000BF50F8201C4906FBD5016821F47B
:10044000006101607047000041F22400C4F2030023
:100450000121016040F26000C2F200000068004724
:100460004EF20462C4F20F021368013943F0020332
:10047000136040F26002C2F20002106041F200001C
:10048000C4F203000022C260042202600222426021
:1004900081623E21816301214162816170470000D8
:1004A00045F23800C4F20200016881F002010160E7
:1004B000704700004EF20864C4F20F04FFF738FFE3
:1004C000FFF78CFF206840F0200020602068800645
:1004D000FCD545F20040C4F2020001684FF6F0720C
:1004E00041F00E010160016A21F00E010162D0F8B5
:1004F0001C1141F00E01C0F81C11D0F82C119143D1
:10050000C0F82C11D0F8281121F00E01C0F82811E4
:1005100040F2A140C0F200004FF60401FFF7A0FF37
:10052000FFF708FFFFF70FFFFCE700003C050000A6
:0C0530000000002068040000EC02000045
:040000050000026D88
:00000001FF
