:020000040000FA
:10000000680400206D02000071020000730200000D
:100010007502000077020000790200000000000075
:100020000000000000000000000000007B02000053
:100030007D020000000000007F020000810200003D
:1000400083020000D9050000830200008302000043
:10005000830200008302000083020000830200008C
:10006000830200008302000083020000830200007C
:10007000830200008302000083020000830200006C
:10008000830200008302000083020000830200005C
:1000900083020000CD0800008302000083020000FC
:1000A000830200008302000083020000830200003C
:1000B00083020000830200004D060000830200005E
:1000C000830200008302000083020000830200001C
:1000D000830200008302000083020000830200000C
:1000E00083020000830200008302000083020000FC
:1000F00083020000830200008302000083020000EC
:1001000083020000830200008302000083020000DB
:1001100083020000830200008302000083020000CB
:1001200083020000830200008302000083020000BB
:1001300083020000830200008302000083020000AB
:1001400000000000000000000000000000000000AF
:10015000830200008302000083020000830200008B
:10016000000000000000000000000000000000008F
:10017000000000000000000000000000000000007F
:10018000000000000000000000000000000000006F
:10019000000000000000000000000000000000005F
:1001A000000000000000000000000000000000004F
:1001B000830200008302000083020000830200002B
:1001C000830200008302000083020000830200001B
:1001D000830200008302000083020000830200000B
:1001E00083020000830200008302000083020000FB
:1001F00083020000830200008302000083020000EB
:10020000830200008302000083020000000000005F
:1002100083020000830200008302000083020000CA
:1002200083020000830200008302000083020000BA
:1002300083020000830200008302000083020000AA
:10024000830200008302000083020000830200009A
:10025000830200008302000083020000830200008A
:1002600083020000830200008302000000F00AB84D
:10027000FEE7FEE7FEE7FEE7FEE7FEE7FEE7FEE756
:10028000FEE7FEE700F002F800F047F814A696E853
:10029000000CB244B344DA4501D100F03EF8BAE8AC
:1002A0000F000FA696E83000A5EB040504EB060747
:1002B000AAEB0704A7F101074FEA15154FEA34141A
:1002C000A4F10104AC4201D300F027F813F0010FB0
:1002D00018BFFB1A43F0010300F001F8DBE71847F1
:1002E000580B0000680B000070470000002300243A
:1002F00000250026103A28BF78C1FBD8520728BF36
:1003000030C148BF0B607047642900F07580002041
:1003100070471FB51FBD10B510BD00F022F9114682
:10032000FFF7F7FF00F096FB00F040F903B4FFF78A
:10033000F2FF03BC00F048F972B6704762B670472E
:10034000EFF3108072B6704780F31088704730BFAB
:10035000704702480249014A024B7047680000207A
:1003600068040020680000200FB41CB5074B06AAE3
:100370007B4469460090059800F0DBF80020694650
:1003800000F0EAF81CBC5DF814FB0000E501000079
:100390002DE9F0410E460446002020622046E16827
:1003A000884730B3252805D0D4E901219047206A39
:1003B000401CF2E7E168204600278847050018D076
:1003C000A5F14100192802D820354FF400673246C4
:1003D000294620462760FFF797FF40B1012804D047
:1003E000F61D26F007060836D8E7361DD6E728465C
:1003F000DAE7206ABDE8F0812DE9F04106460024E5
:1004000010687529314616A510D0AFF3008000287A
:1004100002DA404213A507E031688A0701D512A528
:1004200002E0490704D511A5012401E0AFF30080E3
:1004300000210A2206F1240709E0B0FBF2FCB0FB20
:10044000F2F302FB1C00303078541846491C002897
:10045000F3D123462A463046BDE8F04100F00BB800
:10046000000000002D0000002B0000002000000014
:100470007047704770472DE9F0470D469946924600
:10048000044600F124080168880604D5E06921F0DB
:100490001001216000E00120A84201DD471B00E0BF
:1004A0000027A1697A1902EB0900081AA0612078D7
:1004B000C00602D42046AFF30080002608E0D4E94D
:1004C00001211AF806009047206A401C761C206221
:1004D0004E45F4DB2078C0060AD52046AFF30080F5
:1004E00006E0D4E9012130209047206A401C2062B8
:1004F000381EA7F10107F4DC07E0D4E9012118F860
:1005000005009047206A401C2062281EA5F10105C5
:10051000F3DC2046AFF300802078000602D50220ED
:10052000BDE8F0870120FBE701694A1C02610878F9
:10053000704700B58FB0CDE9013100210591054923
:100540007944CDE9031011466846FFF721FF0FB04B
:1005500000BD0000E5FFFFFF0A6802F8010B0A601A
:100560007047754600F02CF8AE46050069465346C4
:1005700020F00700854618B020B5FFF7EAFEBDE879
:1005800020404FF000064FF000074FF000084FF0FA
:10059000000BAC46ACE8C009ACE8C009ACE8C00947
:1005A000ACE8C00921F007018D46704710B504463C
:1005B000AFF300802046BDE81040FFF7B7BE000053
:1005C000004870470000002001491820ABBEFEE73C
:1005D000260002007047000010B545F20014C4F276
:1005E00000042068402802D100F0BAF929E000F0A8
:1005F000CDF900F027FA400000F0FBFA0023C3F623
:10060000B073002200F008FB46F6007248F6C5738E
:10061000C0F28142C3F6A17300F0FEFA0023C3F6D4
:10062000E073002200F0F8FA00F0B6FA40F2600140
:10063000C2F20001086040F26400C2F20000012131
:1006400001704020C4F81C0310BD00002DE9F043E8
:100650008DB045F20024C4F20004206820F0800030
:100660002060022000F014F9206840F08000206033
:100670000A2000F00DF9206840F2640120F08000AB
:10068000C2F20001206000BF08780028FCD041F2CF
:100690000C080020C4F203080870D8F8001045F2D6
:1006A000380621F00101C4F20206C8F8001010213A
:1006B00040F26009C6F8E413C2F20009D9F800104C
:1006C00065291BD34349306042A000F1040E00911C
:1006D0009EE8BE500292019190F82610808C039300
:1006E000ADF824006846049405950697CDF81CC023
:1006F000CDF820E08DF8261000F092F9D9F800002E
:10070000472817D3D9F80000632813D83068082881
:1007100003D0306880F004003060D9F8002040F643
:1007200014616C46C0F200012046FFF71DFE204612
:1007300000F076F9D9F800000B2817D3D9F800009B
:10074000452813D83068082803D0306880F00800A6
:100750003060D9F8002040F614616C46C0F2000108
:100760002046FFF701FE204600F05AF9D9F80000B4
:10077000092825D800203060D9F8002040F61461FF
:100780006C46C0F200012046FFF7EEFD204600F067
:1007900047F9642449F6404000F066F849F64040C5
:1007A00000F062F8306880F00200306049F64040A6
:1007B00000F05AF849F6404000F056F8013CE9D103
:1007C000D8F8000040F00100C8F800000DB0BDE806
:1007D000F08300BF5468652063757272656E742083
:1007E00064697374616E6365206973204F5554208A
:1007F0004F462052414E47450A0D00004EF2700010
:10080000C4F20F000168182241F000410160016844
:1008100041F40061016050F8101C21F4F86140F8C7
:10082000101C50F8101C01F5A86140F8101C01685C
:1008300021F07001016001680160016821F400513C
:100840000160016841F080410160016862F39C51E0
:10085000016000BF50F8201C4906FBD5016821F457
:1008600000610160704700004EF21001CEF20001FD
:100870000138486000208860086840F00100086086
:100880000868C003FCD5086820F0010008607047C4
:1008900041F20C01C4F203010A6822F001020A606D
:1008A0004FF0FF3202EBC000C861C86820F00100C1
:1008B000C860086840F00100086000BFC86B0028ED
:1008C000FCD1086820F001000860704741F20C007C
:1008D000C4F2030001218161026822F0010202607A
:1008E000C26822F00102C26040F26000C2F2000061
:1008F000C822026040F26400C2F20000017070473A
:100900004EF20460C4F20F00016841F00201016080
:1009100001688907FCD541F20400C4F20300816834
:1009200021F001018160042140F8041C026842F0BA
:1009300002020260026822F0100202600122426399
:100940004EF21440CEF20000026861F34F324FF6CF
:10095000EC410260CFF6FF714FF400124250704735
:1009600041F20C00C4F20300016821F001010160B2
:100970004BF22A61C16101218161C16841F001012D
:10098000C160016841F001010160704741F20C0053
:10099000C4F20300016821F001010160C16821F087
:1009A0000101C160704700004EF20860C4F20F0000
:1009B0000169172241F001010161016840F2013330
:1009C00041F0010101604CF23000C4F2000000214E
:1009D0000160112140F80C1C40F8082C702240F8EE
:1009E000042C02681A43026044F22040C4F2000062
:1009F000026842F003020260D0F8FC2042F00302D9
:100A0000C0F8FC20D0F80C2161F30702C0F80C21DB
:100A1000D0F8081121F00301C0F808117047000058
:100A20000178002908BF70474CF20002C4F20002AE
:100A300093699B06FCD4116010F8011F0029F7D1BF
:100A40007047000041F22800C4F203000168006A08
:100A5000081A70474EF20814C4F20F04FFF76CFC3A
:100A60004BF22B60FFF74CFF206840F00200206043
:100A700020688007FCD545F20041C4F20001D1F89E
:100A80002C0120F47F00C1F82C01D1F8280120F0BE
:100A9000C000C1F82801086820F04000086008681C
:100AA00040F080000860086A20F0C0000862D1F8B9
:100AB0001C0140F0C000C1F81C01486820F0400053
:100AC0004860886840F0400088604020C8610A693A
:100AD0004EF2001042F04002CEF200000A61D0F85F
:100AE0000013012262F34F31C0F8001302210160AC
:100AF000216841F02001216021688906FCD545F27A
:100B0000004144F24B32C4F20201C4F64F42C1F834
:100B100020211E22C1F82421D1F828314FF6F0748B
:100B20000023C0F20F04C1F82831C1F82C410C6831
:100B300044F00E040C600C6824F010040C600B628E
:100B40001023C1F81031C1F81C214A6822F01002AC
:100B50004A608A6822F010028A60CA6822F0100295
:100B6000CA60CA6942F01002CA610A6942F0100202
:100B70000A61D0F81C13052262F35751C0F81C1308
:100B8000016841F080410160FFF70EFFFFF736FE7C
:100B9000FFF7D4FBFEE700004FEA1153A3F5806393
:100BA000D3F11E03A8BFD3F1200C08DB4FF00042A5
:100BB00042EAC12252EA505232FA03F07047094227
:100BC0000BD4102BC4BF0020704703F5787CBCF118
:100BD000FF3F05D04FF0FF3070474FF000007047E7
:100BE00070B500F0C3F800BF499224800020704720
:100BF000F0E7B0FA80F310FA03F10AD0C3F11D0355
:100C000003F580634FEA03524FEA415002EBD121D2
:100C100070474FF00000704770B5DFF848C11CEA1C
:100C2000111E1EBF1CEA13159EEA0C0F95EA0C0F4D
:100C300000F06F8081EA03044EEAD47EAE4421EADC
:100C40004C1123EA4C1341F4801143F48013AEF1AC
:100C50007F7EA1FB024CA0FB0365361955EB0C050A
:100C6000A1FB034C4CF10003A0FB021C16EB0C068D
:100C7000654153F10003094218BF46F0010613F421
:100C8000007F0BD14FEA03314FEA053041EA15519D
:100C900040EA165034036FF003020AE04FEAC32122
:100CA0004FEAC52041EA555140EA5650F4026FF030
:100CB000020202EB2E4201EB025585EACE710AD008
:100CC0005FEA440C18BF24F0004450F1000041F1E9
:100CD000000120EAD47040F2FE7C624500D270BD73
:100CE000A84214BF4FF080444FF04044002E08BF8C
:100CF0000024BEF1806FA8BFA1F1C041BDE87040E3
:100D000080F2828001F1C04101F000414FF000000B
:100D100070470CEA13159EEA0C0F18BF95EA0C0FEA
:100D200006D081EA030E4FF000000EF0004170BDC6
:100D300000F01CF88900013E00F007B800F009B887
:100D40004FEA430C5FEA5C5C08D081EA030100F0E3
:100D50005BB84FEA410C5FEA5C5CF6D102494FF0A8
:100D6000000070470000FF070000F87F0EF1020E40
:100D70002EF0030E5EF8046B364205D4012A43EBD5
:100D8000030515F5001F12D8012841EB010C1CF5D5
:100D9000001F0CD80ED14FEAD17C0CEB4C0C0CF19F
:100DA000020C15F5001F08BF4CEBD37C04E04FF09C
:100DB000080C01E04FEAD37C0CEB4C0526FA05F653
:100DC00006F00706B6F1040C06D20EEB860CBDE861
:100DD00070404CF0010C6047DFE80CF0090B020298
:100DE0004FF00041A1F500214FF0000070BD194601
:100DF0001046012851EB010418BFD4F5001484BF3C
:100E0000002001F0004170BD0808A0F500114FEA74
:100E1000310170475468652063757272656E742085
:100E200064697374616E63652069733A2025642078
:100E3000636D0A0D00000000480E00000000002055
:080E400068040000EC02000050
:040000050000026D88
:00000001FF
