:020000040000FA
:10000000700400206D020000710200007302000005
:100010007502000077020000790200000000000075
:100020000000000000000000000000007B02000053
:100030007D020000000000007F020000810200003D
:1000400083020000DD030000830200008302000041
:10005000830200008302000083020000830200008C
:10006000830200008302000083020000830200007C
:10007000830200008302000083020000830200006C
:10008000830200008302000083020000830200005C
:100090008302000095040000830200008302000038
:1000A000830200008302000083020000830200003C
:1000B000830200008302000083020000830200002C
:1000C000830200008302000083020000830200001C
:1000D000830200008302000083020000830200000C
:1000E00083020000830200008302000083020000FC
:1000F00083020000830200008302000083020000EC
:1001000083020000830200008302000083020000DB
:1001100083020000830200008302000083020000CB
:1001200083020000830200008302000083020000BB
:1001300083020000830200008302000083020000AB
:1001400000000000000000000000000000000000AF
:10015000830200008302000083020000830200008B
:10016000000000000000000000000000000000008F
:10017000000000000000000000000000000000007F
:10018000000000000000000000000000000000006F
:10019000000000000000000000000000000000005F
:1001A000000000000000000000000000000000004F
:1001B000830200008302000083020000830200002B
:1001C000830200008302000083020000830200001B
:1001D000830200008302000083020000830200000B
:1001E00083020000830200008302000083020000FB
:1001F00083020000830200008302000083020000EB
:10020000830200008302000083020000000000005F
:1002100083020000830200008302000083020000CA
:1002200083020000830200008302000083020000BA
:1002300083020000830200008302000083020000AA
:10024000830200008302000083020000830200009A
:10025000830200008302000083020000830200008A
:1002600083020000830200008302000000F00AB84D
:10027000FEE7FEE7FEE7FEE7FEE7FEE7FEE7FEE756
:10028000FEE7FEE700F002F800F042F814A696E858
:10029000000CB244B344DA4501D100F039F8BAE8B1
:1002A0000F000FA696E83000A5EB040504EB060747
:1002B000AAEB0704A7F101074FEA15154FEA34141A
:1002C000A4F10104AC4201D300F022F813F0010FB5
:1002D00018BFFB1A43F0010300F001F8DBE71847F1
:1002E00014060000240600007047000000230024CC
:1002F00000250026103A28BF78C1FBD8520728BF36
:1003000030C148BF0B6070471FB51FBD10B510BD91
:1003100000F029F81146FFF7F7FF00F02BF900F085
:1003200047F803B4FFF7F2FF03BC00F04FF80000FA
:1003300072B6704762B67047EFF3108072B67047BE
:1003400080F31088704730BF704702480249014A65
:10035000024B7047700000207004002070000020E5
:10036000704770477047754600F02CF8AE460500A0
:100370006946534620F00700854618B020B5FFF7C0
:10038000E4FFBDE820404FF000064FF000074FF0BB
:1003900000084FF0000BAC46ACE8C009ACE8C0095F
:1003A000ACE8C009ACE8C00921F007018D467047F0
:1003B00010B50446AFF300802046BDE81040FFF7BB
:1003C000B0BF00000048704700000020014918201D
:1003D000ABBEFEE7260002007047000010B545F2F4
:1003E0004004C4F200042068102802D100F09CF8F8
:1003F0002CE000F0B5F841F24800C4F203000068B8
:1004000046F68021C0F20101A1EB400000F061F945
:100410000023C3F6B073002200F06EF946F60072B6
:1004200048F6C573C0F28142C3F6A17300F064F9C7
:1004300000F022F940F260014008C2F200010860B9
:1004400040F26400C2F20000012101701020C4F8E3
:10045000DC0310BD41F20C01C4F203010A6822F072
:1004600001020A60042241F80C2C022241F8082CF7
:100470004FF0FF3202EB8000C861012088610868FC
:1004800040F00100086000BF0869C007FCD00120EF
:100490008861704741F22400C4F203000121016029
:1004A000704700004EF20461C4F20F010A6842F086
:1004B00002020A600A689207FCD540F26801C2F2A3
:1004C0000001086041F20C01C4F203010A6801381E
:1004D00022F001020A60002241F80C2C51F8082C8D
:1004E000032342F0020241F8082CC8610220C862CE
:1004F000886940F001008861C86840F00100C86068
:100500004EF21440CEF20000026863F34F320260F4
:100510004FF6EC42CFF6FF724FF400138350086899
:1005200040F001000860704741F20C00C4F2030083
:10053000016821F001010160042140F80C1C022136
:1005400040F8081C40F26801C2F200010968013954
:10055000C16101218161016841F0010101607047C1
:1005600041F20C00C4F20300016821F001010160B6
:10057000704700004EF208144BF24050C4F20F04D2
:10058000FFF790FF206840F002002060206880079D
:10059000FCD545F21C50C4F20000016945F280040C
:1005A00021F47F010161C168C4F2000421F030012F
:1005B000C160D4F88013012221F01001C4F8801327
:1005C000D4F8801341F02001C4F88013D4F8A013AC
:1005D00021F03001C4F8A013016841F0300101603E
:1005E000D4F8840320F01000C4F88403D4F88803FE
:1005F00040F01000C4F88803D4F88C0320F01000F9
:10060000C4F88C031020C4F89C03D4F8900340F085
:100610001000C4F890034EF20040CEF200000168D2
:1006200062F34F3101604FF60051CFF6FF710222A5
:100630004250FFF77FFE40F2640540F26007C2F2CD
:1006400000050026C2F200072E703E60206820F0F0
:10065000200020600220FFF7FDFE206840F020000F
:1006600020600A20FFF7F6FE206820F020002060BE
:1006700028780028FCD0E7E74FEA1153A3F5806300
:10068000D3F11E03A8BFD3F1200C08DB4FF00042CA
:1006900042EAC12252EA505232FA03F0704709424C
:1006A0000BD4102BC4BF0020704703F5787CBCF13D
:1006B000FF3F05D04FF0FF3070474FF0000070470C
:1006C00070B500F0C3F800BF499224800020704745
:1006D000F0E7B0FA80F310FA03F10AD0C3F11D037A
:1006E00003F580634FEA03524FEA415002EBD121F8
:1006F00070474FF00000704770B5DFF848C11CEA42
:10070000111E1EBF1CEA13159EEA0C0F95EA0C0F72
:1007100000F06F8081EA03044EEAD47EAE4421EA01
:100720004C1123EA4C1341F4801143F48013AEF1D1
:100730007F7EA1FB024CA0FB0365361955EB0C052F
:10074000A1FB034C4CF10003A0FB021C16EB0C06B2
:10075000654153F10003094218BF46F0010613F446
:10076000007F0BD14FEA03314FEA053041EA1551C2
:1007700040EA165034036FF003020AE04FEAC32147
:100780004FEAC52041EA555140EA5650F4026FF055
:10079000020202EB2E4201EB025585EACE710AD02D
:1007A0005FEA440C18BF24F0004450F1000041F10E
:1007B000000120EAD47040F2FE7C624500D270BD98
:1007C000A84214BF4FF080444FF04044002E08BFB1
:1007D0000024BEF1806FA8BFA1F1C041BDE8704008
:1007E00080F2828001F1C04101F000414FF0000031
:1007F00070470CEA13159EEA0C0F18BF95EA0C0F10
:1008000006D081EA030E4FF000000EF0004170BDEB
:1008100000F01CF88900013E00F007B800F009B8AC
:100820004FEA430C5FEA5C5C08D081EA030100F008
:100830005BB84FEA410C5FEA5C5CF6D102494FF0CD
:10084000000070470000FF070000F87F0EF1020E65
:100850002EF0030E5EF8046B364205D4012A43EBFA
:10086000030515F5001F12D8012841EB010C1CF5FA
:10087000001F0CD80ED14FEAD17C0CEB4C0C0CF1C4
:10088000020C15F5001F08BF4CEBD37C04E04FF0C1
:10089000080C01E04FEAD37C0CEB4C0526FA05F678
:1008A00006F00706B6F1040C06D20EEB860CBDE886
:1008B00070404CF0010C6047DFE80CF0090B0202BD
:1008C0004FF00041A1F500214FF0000070BD194626
:1008D0001046012851EB010418BFD4F5001484BF61
:1008E000002001F0004170BD0808A0F500114FEA9A
:1008F000310170470409000000000020700400006E
:04090000EC02000005
:040000050000026D88
:00000001FF
